:10000E0012039E1204088F287E00EF6401700CE527
:10001E002770047D0180027D008D27EF64024E70F3
:10002E0006F525F524F526E52864037033E525FD50
:10003E007C00E4FF12033E7F057E001203CBE52415
:10004E00FD7C007F0112033E7F057E001203CBE58F
:10005E0026FD7C007F0212033E7F057E001203CB3D
:10006E00E52864047014FF1202E78F257F01120247
:10007E00E78F247F021202E78F26E52575F00A84AA
:10008E00F50AE52575F00A8485F00B750C0BE52451
:10009E0075F00A84F50DE52475F00A8485F00E7569
:1000AE000F0BE52675F00A84F510E52675F00A8427
:0600BE0085F011020011A3
:10028200E527602E0526C3E5269464748094804099
:1002920021E4F5260524E524943C748094804012E0
:1002A200E4F5240525E525943C748094804003E41C
:0302B200F525220D
:03000B000200C42C
:1000C400C0E0C0F0C083C082C0D075D000C000C002
:0D00D40001C002C003C004C005C006C00783
:1000E100758A18758CFC051FE51F7002051EC394E7
:1000F10014E51E94004009751E00751F001202428E
:100101000521E52170020520C39402E520940040F9
:10011100097520007521001203620523E523700291
:100121000522C3940AE52294004009752200752333
:040131000012028234
:10013500D007D006D005D004D003D002D001D0001E
:0B014500D0D0D082D083D0F0D0E032C8
:1003CB00EF1FAC0670011E4C600A7D027CEFDCFE59
:0403DB00DDFC80ECD9
:0103DF0022FB
:100381000909000A0A0A0A0A0A0A0A0C123F065B4C
:0C0391004F666D7D077F6F004001080182
:0903F600AE0574092FF8A60622D9
:1001DC00E4F580EF14B4080050549001F475F0036A
:1001EC00A4C58325F0C5837302020C02021002021F
:1001FC001402021802021C02022402022C02023413
:10020C00D2A4800ED2A48012D2A48016D2A4801ABA
:10021C00C2A4D2A3D2A28016C2A4D2A3C2A2800E20
:10022C00C2A4C2A3D2A28006C2A4C2A3C2A2741248
:06023C002DF8E6F580221A
:1003620074092508F8E6FD7C00AF081201DC0508D7
:0E037200C3E508940974809480400375080167
:01038000225A
:05040800E4AF2BF52B11
:01040D0022CC
:1003B500E4FF20B1010F20B0027F0220B2027F03CB
:0503C50020B3027F04DB
:0103CA002210
:1002420085292A1203B58F29AF2A7E00EF64017037
:1002520007E5297003752B01EF64024E7007E5294B
:100262007003752B02E52A64037007E52970037594
:0F0272002B03E52A64047007E5297003752B043C
:01028100225A
:10039E005389F0438901758A18758CFCC28DD28CF5
:0703AE00D2A9D2AFC2B922AF
:10033E008F2C8C2D8D2E1203FF7FA01202B512036F
:10034E00E0AF2C1202B51203E0AF2E1202B512036B
:04035E00E0020003B6
:0202E7008F2C5A
:1002E9001203FF7FA01202B51203E0AF2C1202B570
:1002F9001203E01203FF7FA11202B51203E01203F9
:0D030900178F2D7F011203EC120003AF2DA2
:0103160022C4
:0903FF00D2A0D2A1C2A0C2A12229
:07000300C2A0D2A1D2A0228D
:0202B500AD0793
:1002B700E4FBEBC394087480948050237E00748021
:1002C700A803088006CEA2E713CE13D8F8FFEDF5F2
:0F02D70082EF558224FF92A0D2A1C2A10B80D347
:0102E60022F5
:10031700E4FFD2A0FEEEC39408748094805017D2F5
:10032700A130A00DA8067480088002C313D8FC4230
:0603370007C2A10E80DFE9
:01033D00229D
:0A03EC00EF24FF92A0D2A1C2A122CB
:0B03E000D2A0D2A1A2A0E433FFC2A172
:0103EB0022EF
:03000000020150AA
:0C015000787FE4F6D8FD75812E0201973F
:10015C0002000EE493A3F8E493A34003F68001F2AB
:10016C0008DFF48029E493A3F85407240CC8C333A4
:10017C00C4540F4420C8834004F456800146F6DF73
:10018C00E4800B0102040810204080900381E47E7F
:10019C00019360BCA3FF543F30E509541FFEE49368
:1001AC00A360010ECF54C025E060A840B8E493A32F
:1001BC00FAE493A3F8E493A3C8C582C8CAC583CA5A
:1001CC00F0A3C8C582C8CAC583CADFE9DEE780BE12
:01039D00005F
:00000001FF
