:100168001201D41201078F13EF640170280515538B
:100178001503AF15FEEF7002F512EF64014E700320
:10018800751232EF64024E700375124BEF64034E22
:100198007003751264E515FD7C007F0112009A80DA
:0101A800C294
:03000B000201A946
:1001A900C0E0C0F0C0D0758A9C758CFF0514E514B9
:1001B90075F0648485F014E514C395125004D29146
:0B01C9008002C291D0D0D0F0D0E03214
:1001EB00EF1FAC0670011E4C600A7D027CEFDCFE3B
:0401FB00DDFC80ECBB
:0101FF0022DD
:10010700E4F51620B1137F14FE1201EB30B1FD7F29
:10011700147E001201EB75160120B0147F147E00C7
:100127001201EB30B0FD7F147E001201EB75160251
:1001370020B2147F147E001201EB30B2FD7F147ED3
:10014700001201EB75160320B3147F147E00120111
:10015700EB30B3FD7F147E001201EB751604AF166A
:010167002275
:0C0200000A083F065B4F666D7D077F6FAC
:10009A00EF14B4080050549000AF75F003A4C58360
:1000AA0025F0C583730200C70200CB0200CF02000D
:1000BA00D30200D70200DF0200E70200EFD2A480D9
:1000CA000ED2A48012D2A48016D2A4801AC2A4D2BC
:1000DA00A3D2A28016C2A4D2A3C2A2800EC2A4C274
:1000EA00A3D2A28006C2A4C2A3C2A274082DF8E6B3
:0D00FA00F5807F017E001201EBE4F580220D
:1001D4005389F0438901758A9C758CFFC28DD28C3A
:0701E400D2A9D2AFC2B9227B
:0300000002000EED
:0C000E00787FE4F6D8FD758116020055DD
:10001A00020168E493A3F8E493A34003F68001F293
:10002A0008DFF48029E493A3F85407240CC8C333E7
:10003A00C4540F4420C8834004F456800146F6DFB6
:10004A00E4800B0102040810204080900200E47E44
:10005A00019360BCA3FF543F30E509541FFEE493AB
:10006A00A360010ECF54C025E060A840B8E493A372
:10007A00FAE493A3F8E493A3C8C582C8CAC583CA9D
:10008A00F0A3C8C582C8CAC583CADFE9DEE780BE55
:01020C0000F1
:00000001FF
