:10000E00120074E4F50AC3E50A9464748094805077
:10001E000E850A087F0A7E0012008B050A80E7759E
:10002E000A64D3E50A94007480948040D6850A0849
:0B003E007F0A7E0012008B150A80E78D
:03000B00020049A7
:10004900C0E0C0F0C0D0758A9C758CFF0509E50930
:1000590075F0648485F009E509C395085004D2A1B7
:0B0069008002C2A1D0D0D0F0D0E03265
:10008B00EF1FAC0670011E4C600A7D027CEFDCFE9C
:04009B00DDFC80EC1C
:01009F00223E
:100074005389F0438901758A9C758CFFC28DD28C9B
:07008400D2A9D2AFC2B922DC
:030000000200A05B
:0C00A000787FE4F6D8FD75810A02000E9E
:00000001FF
